:020000040800F2
:10000000D80700206501000861200008A11C000835
:1000100000000000000000000000000000000000E0
:100020000000000000000000000000006520000843
:100030000000000000000000632000086F2000089E
:1000400077010008770100087701000877010008B0
:1000500077010008770100087701000877010008A0
:100060000000000077010008770100087701000810
:100070007701000877010008000000007701000800
:100080000000000000000000000000000000000070
:1000900077010008000000007701000877010008E0
:1000A00000000000770100080000000000000000D0
:1000B000C5280008770100080000000000000000CB
:1000C00000F002F800F03EF80CA030C80838241800
:1000D0002D18A246671EAB4654465D46AC4201D180
:1000E00000F030F87E460F3E0FCCB6460126334274
:1000F00000D0FB1AA246AB4633431847D82800006D
:10010000F8280000103A02D378C878C1FAD852070C
:1001100001D330C830C101D504680C6070470000BD
:100120000023002400250026103A01D378C1FBD813
:10013000520700D330C100D50B6070471FB51FBDFB
:1001400010B510BD00F0C0F91146FFF7F7FF02F03F
:1001500009FC00F0D8F903B4FFF7F2FF03BC00F08C
:10016000DFF900000748804707480047FEE7FEE741
:10017000FEE7FEE7FEE7FEE704480549054A064BB1
:100180007047000009210008C1000008D8010020C4
:10019000D8070020D8030020D8030020FEB505466C
:1001A00010460C46184373D0AE468C460020AD1A5C
:1001B00001469C4167D36646002701243D46B61A96
:1001C0009D4102D313463A462124654676462F04C4
:1001D000360C3E432D0CB61A9D4104D3150C1B045E
:1001E0002B4312041034654676462F06360A3E43EA
:1001F0002D0AB61A9D4104D3150E1B022B43120281
:100200000834654676462F0736093E432D09B61A4F
:100210009D4104D3150F1B012B431201241D65467C
:100220007646AF07B6083E43AD08B61A9D4104D3E3
:10023000950F9B002B439200A41C65467646EF0762
:1002400076083E436D08B61A9D411AD392185B4159
:10025000641C16E00018764665464941B71A9D4170
:100260000191009009D36046B11A98418E468446A8
:10027000009801990025401C6941DD0752082A4376
:100280005B08641EE6D57246634603B0F0BDFFE727
:1002900000200146C046C0462A462346F5E701E055
:1002A00004C0091F0429FBD28B0701D50280801CE2
:1002B000C90700D00270704700290BD0C30702D0D5
:1002C0000270401C491E022904D3830702D5028014
:1002D000801C891EE3E70022EEE70022DFE7000032
:1002E000024670B50A4392072AD11E4DEE0104C89A
:1002F00008C9541B9443344017D0D0B2D9B2401A25
:100300002106014310D190B299B2401A2104014351
:100310000AD110021902000A090A401A21020143F7
:1003200002D1100E190E401A70BD9A42DFD010BAD9
:1003300019BA884201D9012070BD0020C04370BDA8
:1003400002780B78401C491C002A09D09A4207D138
:1003500002780B78401C491C002A01D09A42EFD049
:10036000D01A70BD01010101002203098B422CD378
:10037000030A8B4211D300239C464EE003460B43F5
:100380003CD4002243088B4231D303098B421CD357
:10039000030A8B4201D394463FE0C3098B4201D349
:1003A000CB01C01A524183098B4201D38B01C01A81
:1003B000524143098B4201D34B01C01A52410309F8
:1003C0008B4201D30B01C01A5241C3088B4201D3A7
:1003D000CB00C01A524183088B4201D38B00C01A54
:1003E000524143088B4201D34B00C01A5241411A7B
:1003F00000D201465241104670475DE0CA0F00D05E
:100400004942031000D34042534000229C46030956
:100410008B422DD3030A8B4212D3FC22890112BADC
:10042000030A8B420CD3890192118B4208D38901B4
:1004300092118B4204D389013AD0921100E08909CC
:10044000C3098B4201D3CB01C01A524183098B42AD
:1004500001D38B01C01A524143098B4201D34B0196
:10046000C01A524103098B4201D30B01C01A5241F9
:10047000C3088B4201D3CB00C01A524183088B4280
:1004800001D38B00C01A5241D9D243088B4201D309
:100490004B00C01A5241411A00D2014663465241F4
:1004A0005B10104601D34042002B00D549427047F3
:1004B00063465B1000D3404201B50020C046C046F1
:1004C00002BD704770477047754600F025F8AE468C
:1004D000050069465346C008C000854618B020B5DF
:1004E000FFF74AFE60BC00274908B6460026C0C593
:1004F000C0C5C0C5C0C5C0C5C0C5C0C5C0C5403DDC
:1005000049008D46704710B50446C046C046204697
:10051000FFF721FE10BD0000004870477401002065
:1005200001491820ABBEFEE726000200704772B6F4
:10053000FEE710B501F0D8FC10BD30B50146203102
:100540004A790023022A04D00422C2630B710120DD
:1005500030BD026814680E25AC431460026814684C
:10056000640864001460446C1C2214400122154687
:10057000006CA54045604A7118460B7130BD70B5DE
:100580000024014620314A79022A03D00421C163A4
:10059000012418E0026813680E25AB43136002685B
:1005A00013685B085B001360436C1C22134001223C
:1005B00015469D40036C5D604A7100220A71816B93
:1005C000002900D08847204670BD0000F8B5002300
:1005D00003240125B8E032462E469E40B446324000
:1005E00079D00E79B607B60F012E01D0022E17D1A1
:1005F00086682746B6465E00B74000967646BE43FC
:10060000B646CF68009EB740764637438760466857
:100610006746BE430F79FF06FF0F9F403743476091
:100620000E79F643B6070ED0C6682746B4465E007C
:10063000B646B7406646BE43B4468F687646B74076
:1006400066463743C7600E79B607B60F022E14D13F
:10065000DE08B60036180096366A5F07B446FE0E0E
:100660000F27B646B7406646BE43B4460F69764686
:10067000B74066463743009E376206682746B44651
:100680005E00B646B7406646BE430F79B446BF0724
:10069000BF0F7646B7406646374307604E68B603DD
:1006A000B60F50D02B4F7E6B2E437E639F082A4E91
:1006B000BF00BE190096B6680F27B4469E07360FD6
:1006C000B646B7406646BE4305273F07B446B84224
:1006D00002D1002710E036E0204FB84201D10127B7
:1006E0000AE01F4FB84201D1022705E01D4FB84272
:1006F00001D1052700E006277646B7406646374316
:10070000009EB760184E36684F689643FF0300D5C9
:100710001643154F3E607E684F689643BF0300D571
:100720001643114F7E60BE684F689643FF0200D5A6
:1007300016430D4FBE60FE684F689643BF0200D55A
:100740001643094AD6605B1C0A681646DA4000D098
:1007500041E7F8BD001002400000014000040050D5
:1007600000080050001C005000040140002A01D085
:10077000816170478162704701488068704700005E
:100780002400002070B5024640325378202B1CD143
:100790001378012B19D0012313702424547004689A
:1007A00025689D432560046825681E03B5432560C0
:1007B000046825680D4325600068016819430160DD
:1007C000202050700020107070BD022070BD70B5E8
:1007D000024640325378202B1BD11378012B18D0BE
:1007E000012414702423537003681D68A5431D6001
:1007F00005682B680F263602B343090219432960A6
:1008000000680168214301602020507000201070B2
:1008100070BD022070BD000070B5040006D02546F2
:10082000403568780026002802D005E0012070BD20
:100830002E70204600F05AF9242068702068016864
:100840004908490001600F21606809068843216852
:10085000086121688A680120C00382438A60E168D8
:100860000129A16808D021229202114322689160D7
:10087000E168022902D005E00143F7E7012122687F
:10088000C902516021684A680F4B1A434A602168C7
:10089000CA688243CA60616920690843A169090284
:1008A00008432168C860216AE0690843216808603C
:1008B000206801680122114301606664202068708D
:1008C0002663AE70002070BD00800002FFB50546B3
:1008D00004464035687881B0202878D128780128EE
:1008E00075D001202870FFF747FF074601220090CE
:1008F0001923D103204601F041FA00283CD12220DF
:1009000068701020A87000266664039860620498DE
:1009100060856663618D2F48FF2903D9FF222285F8
:1009200000903BE0618D218500903DE020460299DA
:1009300001F010FA16E001F049FA00281CD12068F5
:10094000406A616A0870606A401C6062208D401EC7
:1009500081B22185608D401E6085608D002801D0A8
:1009600000290CD0608D0A9900283A462046E2D131
:1009700001F06CFA00281CD0012005B0F0BD0097F2
:100980000022802120460A9B01F0F8F90028F3D1CB
:10099000608DFF2805D9FF222285009601231B06C2
:1009A000C4E7608D20850096208D0123C2B25B06CE
:1009B000BCE721682020C86121684A68064B1A40BC
:1009C0004A606870AE702E700020D6E7FFE7022004
:1009D000D3E700000024008000E800FEFFB50546D4
:1009E00004464035687881B0202878D128780128DD
:1009F00075D001202870FFF7BFFE07460122009046
:100A00001923D103204601F0B9F900283CD1212057
:100A100068701020A87000266664039860620498CD
:100A200060856663618D2F48FF2903D9FF222285E7
:100A300000903BE0618D218500903DE020460299C9
:100A400001F088F916E001F027FA00281CD1606A4D
:100A5000216800788862606A401C6062608D401E78
:100A60006085208D401E80B22085618D002901D0D7
:100A700000280CD0608D0A9900283A462046E2D121
:100A800001F0E4F900281CD0012005B0F0BD00976A
:100A90000022802120460A9B01F070F90028F3D142
:100AA000608DFF2805D9FF222285009601231B06B1
:100AB000C4E7608D20850096208D0123C2B25B06BD
:100AC000BCE721682020C86121684A68064B1A40AB
:100AD0004A606870AE702E700020D6E7FFE70220F3
:100AE000D3E700000020008000E800FE10B586B0CB
:100AF000044614216846FFF7F0FB1049206888423D
:100B00001AD10F4CE16A02200143E162E16A01401F
:100B10000591C02000901220019000200290032037
:100B200003900120049069460648FFF74FFDA06B33
:100B3000012149050843A06306B010BD00540040E0
:100B400000100240000400500248816802788918B1
:100B5000816070472400002010B508480024016817
:100B6000402211430160032000F00AF8002801D060
:100B7000012401E000F0E0F8204610BD0020024012
:100B800070B504460D4D7D202978C000FFF7ECFBC1
:100B900001460B480068FFF7E7FB00F0D5FC002892
:100BA00009D1042C07D200222146401E00F0DCF8B7
:100BB00000206C6070BD012070BD0000240000208A
:100BC0003000002010B50021022000F0A5F800211F
:100BD000042000F0A1F80021032000F09DF810BDD2
:100BE00010B502494860FFF7EDFF10BD1C00002062
:100BF000F0B593B04024214602A8FFF76EFB052014
:100C0000694608710A25134E0095012301AAAE21F9
:100C10007068FFF7E3FE0095234602AAAE217068D4
:100C2000FFF754FE0C4E0D4F002002A90A1853780E
:100C300015781B022B435DBA8308F554D57892785A
:100C40002D021543001D6ABAC0B2FA54A042EDD37A
:100C500013B0F0BD1C00002014010020240100206E
:100C60003EB5694608710A24084D0094012301AA83
:100C7000AE216868FFF7B2FE0094012302AAAE21FC
:100C80006868FFF723FE6946087A3EBD1C00002015
:100C900010B5054A5070000111700843C1B2092017
:100CA00000F03AF810BD00001C00002010B504460A
:100CB0000720FFF7D5FFA1078008890F80000143B7
:100CC000072000F029F810BD10B504460A488470CA
:100CD0000620FFF7C5FFC1086007C900400F0143A8
:100CE000032C05D0F7200140062000F015F810BDB8
:100CF00008200143F8E700001C00002010B504465E
:100D00000720FFF7ADFF6107E322C90E1040014342
:100D1000072000F001F810BD1CB56A461071517132
:100D20000A2000900348022301AAAE214068FFF781
:100D300055FE1CBD1C0000200448416B01221143DC
:100D40004163816B020411438163704700100240CC
:100D5000002805DBC106C90E012088400149086052
:100D60007047000000E100E010B501F0D9FD10BDB2
:100D7000F8B50446007800274E4D800671D54D4EDB
:100D8000403EB06BC00004D4B06BA9050843B0630B
:100D9000012749480168C90511D40168821511432A
:100DA0000160FFF7E9FC009005E0FFF7E5FC009922
:100DB000401A642837D840480068C005F5D5326825
:100DC0000321090560680A400140914208D081036F
:100DD000890F032904D13168890301D50120F8BDA9
:100DE0002A69032109040A4022D0084090421FD0FA
:100DF000207880061CD528692A6988430121C90406
:100E00000A432A612A698A432A612861C0050FD5ED
:100E1000FFF7B2FC009008E0FFF7AEFC0099411A22
:100E20002648814201D90320F8BD28698005F3D501
:100E300061688803800F032805D13268000582436A
:100E400001400A433260286903226168120411409C
:100E500008432861002F04D0B16B012000078143B3
:100E6000B1632078800705D5E8680C218843A16824
:100E70000843E8602078400706D5E8680321890226
:100E80008843E1680843E8602078000706D5E868F1
:100E900003210903884321690843E860207800069C
:100EA00006D5E86803218904884361690843E8603E
:100EB0000020F8BD40100240007000408813000080
:100EC000F8B50E46050038D05E480068C007C00F70
:100ED000B04214D25B4C2068400840003043206090
:100EE000FFF74AFC074605E0FFF746FCC11B5648E2
:100EF00081427AD82068C007C00FB042F4D1287868
:100F0000524C800705D5E068F0218843A968084362
:100F1000E0602878C00752D06868022806D003280D
:100F200007D0216801280AD0890504E021688903D7
:100F300001E021688901002903DB0120F8BD490790
:100F4000F9E7E168890889000143E160FFF714FCD3
:100F50000746686802280AD0032814D001281ED04A
:100F600029E0FFF709FCC11B374881423DD8E06802
:100F70000007800F0228F4D121E0FFF7FDFBC11B21
:100F80003148814231D8E0680007800F0328F4D14E
:100F900015E0FFF7F1FBC11B2B48814225D8E06823
:100FA0000007800F0128F4D109E0FFF7E5FBC11B22
:100FB0002548814219D8E0680007800FF5D1214803
:100FC0000168C907C90FB14217D90168490849002A
:100FD00031430160FFF7D0FB074608E005E0FFF76B
:100FE000CBFBC11B1848814201D90320F8BD15482D
:100FF0000068C007C00FB042F1D12878400706D57D
:10100000E068072109028843E9680843E06028781E
:10101000000707D5E0680721C90288432969C9008C
:101020000843E06000F03AF8E168094A0906090F50
:10103000515CC8400749086007480068FFF7A0FDF9
:10104000F8BD00000020024088130000001002409C
:10105000B02900083000002028000020044805497D
:101060000068C968044A4905490F515CC840704787
:101070003000002000100240C9290008044805493A
:101080000068C968044A8904490F515CC840704728
:101090003000002000100240C929000870B51A4A2B
:1010A000D3681A490C2018408D0004280CD04E003B
:1010B000082810D00C2810D050680004410F0120DF
:1010C000C003491C884070BD1068C00601D50846A1
:1010D00070BD284670BD304670BD98020C4C000FA4
:1010E000205C1B029C0FD368641CDB0301D53146D6
:1010F00003E01268D20600D4294601F0EBFB224639
:101100000023FFF74BF870BD0010024000093D00BE
:10111000C0290008FEB505007ED0F74CE7680C201A
:10112000E66807400120000406402878C00747D041
:10113000082F05D00C2F0AD101200004864206D1C9
:10114000206880033CD568680028E5D038E001209D
:1011500069680004814203D121680143216011E0E4
:10116000052301221B0492049942216802D11143F4
:101170002160F1E7814321602168014000912068EE
:1011800090432060686800280DD0FFF7F5FA0090C2
:1011900005E0FFF7F1FA0099401A64287ED820682C
:1011A0008003F6D50CE0FFF7E7FA009005E0FFF7C3
:1011B000E3FA0099401A6428F0D820688003F6D436
:1011C000287880075DD5E868810604D5226820214B
:1011D0000A43226088430923042F0DD00C2F01D12C
:1011E000002E09D000283CD021689943014321609A
:1011F000FFF7C2FA064628E02168490701D5002812
:101200008AD061681F22120291432A691202114397
:1012100061602168994300E091E101432160FFF79B
:101220003DFFE16809060A0FB449895CC840B4492A
:101230000860B4480068FFF7A3FC002874D120E0E0
:10124000FFF79AFA801B0228A8D820684007F7D534
:1012500060681F2109028843296909020843606008
:101260000FE02068400840002060FFF785FA06463E
:1012700004E0FFF781FA801B02288FD8206840071E
:10128000F7D42878C00661D5002F0DD0A8690028B2
:101290004BD02068FF210131084300E0C6E0206008
:1012A000FFF76AFA06462DE02068800502D5A86996
:1012B0000028A5D06068072149038843296A0843AC
:1012C00060606068297F0002000A090608436060C8
:1012D000286A410B0120C003491C8840E1680906C7
:1012E0000A0F8649895CC8408549086085480068BE
:1012F000FFF746FC002817D128E0FFF73DFA801BD6
:101300000228A1D820688005F7D560680721490325
:101310008843296A084360606068297F0002000AE8
:1013200009060843606011E0E1E02168FF20013018
:1013300081432160FFF720FA064604E0FFF71CFA1C
:10134000801B022872D820688005F7D428786E4E5A
:10135000000724D568690028306910D001210843AE
:101360003061FFF709FA009005E0FFF705FA0099F0
:10137000401A02285AD830698007F6D50FE0400895
:1013800040003061FFF7F8F9009005E0FFF7F4F94D
:101390000099401A022849D830698007F6D4287885
:1013A000400765D500200290A06BC00006D4A06B5A
:1013B000012109070843A0630120029053480168F6
:1013C000C90511D40168821511430160FFF7D4F9F2
:1013D000009005E0FFF7D0F90099401A642825D85D
:1013E0004A480068C005F5D5FF20AA68013082424E
:1013F00003D131690143316111E001218902002AE1
:1014000007D005231B029A4203D132690A43326195
:10141000EFE7326982433261306988433061A868FE
:1014200000280FD0FFF7A8F9009007E05EE0FFF773
:10143000A3F90099411A3648814257D8306980058E
:10144000F5D50DE0FFF798F9009006E0FFF794F965
:101450000099411A2E48814248D830698005F5D458
:101460000298002804D0A06B012109078843A063DB
:10147000686A002865D00C2F4CD001263606022859
:10148000206805D0B0432060FFF776F905462FE0CD
:10149000B0432060FFF770F9074604E0FFF76CF9EE
:1014A000C01B022822D820688001F7D4E96AA86A04
:1014B000E2680843296BFD231B049A431143084348
:1014C000E060206830432060FFF756F9054604E0ED
:1014D000FFF752F9401B022808D820688001F7D591
:1014E0002FE0FFF749F9401B022801D90320FEBD78
:1014F00020688001F5D424E000100240B0290008E3
:101500003000002028000020401002400070004001
:10151000881300000128EAD0E06801210904AA6AC2
:10152000014091420BD10F218904EA6A01409142A6
:1015300005D1032189050840296B884201D001208B
:10154000FEBD0020FEBD0000094910B5401E8842C6
:1015500001D9012010BD074C60610321081F01F073
:10156000DFF90020A06107202061002010BD0000ED
:10157000FFFFFF0000E000E0F0B502462032137EDE
:10158000012B1ED001251576022353760668746858
:10159000B3687027BC430F68274377600068AC07C7
:1015A000A04205D0084CA04202D0084CA04204D171
:1015B00080244968A3431943816055760020107642
:1015C000F0BD0220F0BD0000000801400014014001
:1015D00070B5050005D02C462034607E002802D06E
:1015E00006E0012070BD00202076284600F010F8AB
:1015F00002206076291D286800F08CFD0120A0776C
:10160000A076E076207760776076002070BD0000DD
:10161000006801218907884204D10348816B0122B7
:10162000114381637047000000100240F8B5054681
:1016300004462035287E0026012817D00120287670
:1016400002206876226890687727FF23B8431B0240
:10165000984390600868502838D00EDC20284FD07E
:1016600006DC00284CD010281ED149E00220F8BD2D
:10167000302845D0402817D13AE060282ED0702875
:1016800019D001221203801A0FD090420CD1CB68DE
:101690004A688968206800F069FD20688168012235
:1016A00092031143816000E001260120687600204A
:1016B00028763046F8BDCB684A688968206800F013
:1016C00055FD2168886838438860EEE7CA68496834
:1016D000206800F0A4FD5021206806E0CA6849682F
:1016E000206800F0ADFD6021206800F04AFDDCE7D5
:1016F000CA684968206800F092FD40212068F4E73C
:10170000226801461046F0E770B5044605462034CD
:10171000207E01280ED001262676022060762846FB
:1017200000F037FD01460020002905D066762076BE
:10173000012070BD022070BD2968CA6840239A4309
:10174000CA602968CA681B029A43CA606676207616
:10175000002070BD7047704770470000F8B5026800
:101760000446D06911689668A24B05461D402023A7
:10177000002D75D0F707A04DFF0FBC460D402F433D
:101780006DD02546C7078035002F06D0CF0504D57C
:10179000012717622A683A432A60820708D5F207B0
:1017A00006D0276802223A622A6804273A432A6050
:1017B000420708D5F20706D02668042232622A685A
:1017C000022632432A6002070AD50A461A406646B4
:1017D000324305D02668082232622E6816432E60F6
:1017E000020508D54A0106D501222668D2023262D6
:1017F0002A681A432A602A68002A39D0800606D54A
:10180000880604D5616E002901D0204688472868E3
:1018100021688968490602D4282108422DD0204633
:1018200000F0C2FD21688868400622D5EFF31080E1
:10183000012282F310888B68402293438B6080F3EF
:101840001088206F002814D06C498163206FFEF748
:1018500096FE00280CD0206F816B08E000E012E0BB
:10186000850610D58D060ED5616EA9E02046884705
:10187000F8BD2046FFF770FFF8BD2046FFF76CFF6C
:1018800000202860F8BD256E012D7CD1C5067AD5D3
:10189000CD0678D510261662226890682546400647
:1018A0004035002846DA216F086840680004000CC3
:1018B000E8D02F8B8742E5D96883086800688006E6
:1018C00033D4EFF31080012181F3108811683701C0
:1018D000B943116080F31088EFF31080012181F388
:1018E000108821688A68520852008A6080F3108844
:1018F000EFF31080012181F3108821688A68402766
:10190000BA438A6080F31088E36700202066EFF313
:101910001080012181F3108821680A68B2430A60AF
:1019200080F31088206FFEF708FE288B698B401A21
:1019300081B231E0288B698B401A81B2688B002814
:10194000A0D000299ED0EFF31080012585F31088E8
:101950001568FF272137BD43156080F31088EFF32A
:101960001080012282F31088226895686D086D004E
:10197000956080F31088E367002020666066EFF3CF
:101980001080012200E00BE082F3108822681368C7
:10199000B343136080F310882046FFF7DBFEF8BDE9
:1019A000C50208D5750206D5012000051062204643
:1019B000FFF7D1FEF8BD050606D50D0604D5A16ECC
:1019C000002900D052E7F8BD4006FCD54806FAD5FC
:1019D0002046EFF31081012484F310881468402519
:1019E000AC43146081F3108883670021816600F0A6
:1019F00050F9F8BD0F0800002001000495230008ED
:101A000010B5040003D0A06F002802D007E0012029
:101A100010BD002174200155204600F027F8242035
:101A2000A06720680168490849000160204600F06D
:101A300097FD0128ECD0606A002802D0204600F013
:101A400012FC206841680922D2029143416020685B
:101A500081682A2291438160206801680122114334
:101A60000160204600F064FC10BD000010B586B097
:101A7000044614216846FEF730FC15492068884268
:101A800024D11448816B0122520411438163C16A3D
:101A900001221143C162C06A6946104005900320CB
:101AA0004002009002200190002002900320039049
:101AB0000420049005200007FEF788FD002211464F
:101AC0001C20FFF751F91C20FFF742F906B010BDAA
:101AD000004400400010024010B500F001F810BDB5
:101AE00070B5C36F202B2ED100290BD0002A09D04E
:101AF000012483682403A34206D10369002B03D188
:101B0000CB0701D0012070BD034660331C7D012C42
:101B100019D001241C75002303660C4B04689C42F9
:101B20000ED063681B020BD5EFF31083012585F3FC
:101B3000108825680126B6063543256083F3108892
:101B400000F0FCFD70BD022070BD000000480040A8
:101B500010B5044610221849FFF7BEFF1749164872
:101B6000FEF7BEFB00281FD014493223102209398A
:101B7000204600F08FF80320FFF7A6F8FFF738F8AB
:101B80000D49322310221031204600F083F80A4913
:101B9000322310222031204600F07CF8FFF712F8A3
:101BA0000020FFF791F810BD044932231022891F4D
:101BB000204600F06FF810BD04010020090000204D
:101BC000FFB50446806F83B017460D4620285ED1CE
:101BD000002D0AD0002F08D0A168C001814207D192
:101BE0002069002804D1E80702D0012007B0F0BD29
:101BF000204660300090007D012848D000980121E7
:101C000001750020802108512120A067FEF7B4FD56
:101C1000264640360190378277820120A168000372
:101C2000814202D12069002805D02F460025009965
:101C30000020087511E00027F9E7002280212046E6
:101C400000F0D6FD002815D1002F15D02168387876
:101C500088627F1C708A401E7082708A019B0028F7
:101C600006980090E9D100224021204600F0C0FDF6
:101C7000002808D00320B9E728882168C005C00DD6
:101C80008862AD1CE6E72020A0670020AEE70220B6
:101C9000ACE7704710B532231022FFF791FF10BD5B
:101CA000FEE701688A69D243920701D400228A6262
:101CB00000688169C943C90703D0816901221143C2
:101CC0008161704710B500F041F910BDF7B50446C9
:101CD00000680F468169C943C90636D44168890145
:101CE00004D4416801229203114341600026254635
:101CF000403520688069C043800612D5781CF8D032
:101D0000FEF73AFD0299401AB84201D8002FF0D1EF
:101D1000616C2020014361646870AE702E700120F8
:101D2000FEBD21681020C86120682027C7612046B9
:101D3000FFF7B7FF20684168054A11404160606CB9
:101D40000421084360646F70E7E70020FEBD0000D7
:101D500000E800FEF0B50668059C7568064F600D4A
:101D6000384385438805800D1104084318432043F8
:101D700005437560F0BD0000FF63FF03F8B51D4625
:101D800017460E46044609E0681C07D0FEF7F4FC2F
:101D90000699401AA8420BD8002D09D02068816905
:101DA000304688430FD00020B842EDD00020F8BD67
:101DB000616C202001436164403460700020A07099
:101DC00020700120F8BD0120EEE70000F7B50027E4
:101DD000202605460446403528E02046029A01990F
:101DE000FFF774FF002801D00120FEBD2068806944
:101DF000C043800611D420688169C943490702D4D1
:101E0000218D002917D1C661206841680E4A114012
:101E1000416067646E70AF7013E0FEF7ADFC02992D
:101E2000411A0198814208D8002806D020688069AC
:101E3000C0434007D1D40020FEBD606C30436064D5
:101E40006E702F70D0E7000000E800FE70B51646F7
:101E50000D4604460FE0324629462046FFF736FF7E
:101E6000002801D0012070BDFEF786FC801BA8422F
:101E700008D8002D06D020688069C0438006EAD4C7
:101E8000002070BD616C20200143616440346070AB
:101E90000020A0702070E5E770B516460D46044698
:101EA00011E0324629462046FFF710FF002801D0F6
:101EB000012070BD681C06D0FEF75EFC801BA842A6
:101EC00008D8002D06D020688069C0438007E8D478
:101ED000002070BD616C202001436164403460705B
:101EE0000020A0702070E3E770B586B0142168462A
:101EF000FEF7F3F91448C26A04210A43C262C26AB7
:101F00000A400592C16A01242143C162C16A21408D
:101F10000591C26A02210A43C262C06A05260840CE
:101F2000CD0136070590002229463046FEF71EFCFB
:101F30000021029103910095019469463046FEF715
:101F400045FB06B070BD00000010024010B51348FC
:101F500011490160022141600021816001614161FC
:101F600081610122C161C2600162FEF755FC002857
:101F700001D0FEF7DCFA00210848FEF703FC002838
:101F800001D0FEF7D4FA00210448FEF720FC002817
:101F900001D0FEF7CCFA10BD005400403400002000
:101FA00010B58CB00024059406940794142168465B
:101FB0000894FEF792F901211948099489070A94B7
:101FC0000160042184604160046116494461C1607C
:101FD000FFF7FEFA002801D0FEF7A9FA012000035E
:101FE000059005A90E48FFF721FB002801D0FEF758
:101FF0009EFA009469460A480194FFF785FB002881
:1020000001D0FEF794FA099409A905480A94FFF74C
:10201000B3FA002801D0FEF78AFA0CB010BD000018
:102020003401002060EA000010B50C480A49016044
:102030004B21C901416000218160C1600161816162
:10204000C1610C22016242614162FFF7D9FC0028A4
:1020500001D0FEF76CFA10BD004400408000002063
:10206000FEE77047704710B500F006F810BD10B5D8
:10207000FEF76AFD10BD000010B598B03421684627
:10208000FEF72BF914210DA8FEF727F9182112A845
:10209000FEF723F91B4801680322D2029143C214C0
:1020A00089180160092102200391102100900491F8
:1020B00009900320002480050C900A940B94684634
:1020C000FFF728F8002801D0FEF731FA0F200D9015
:1020D00003200E900F941094002111940DA8FEF788
:1020E000EFFE002801D0FEF722FA0A201290149485
:1020F000169412A8FEF73CFE002801D0FEF717FA4E
:1021000018B010BD00700040704710B5FFF748FFD1
:1021100010BD000070B5026801239B07114C124DE1
:10212000984203D0A04201D0A84203D17026B24306
:102130004E683243984203D0A04201D0A84204D155
:1021400003231B029A43CB681A4380239A430B69EB
:102150001A4302608A68C262096881620121416192
:1021600070BD0000000801400014014030B58468D3
:10217000FF252D021B021343AC430B432343836013
:1021800030BD826870239A430A4307210A43826064
:10219000704770B505680024AA6870239A434B689D
:1021A0001343DB080A68DB001A43AA604A68130776
:1021B0001B0F31D11211130000F0A4FB082F2F2F99
:1021C0002F0C2228052E0B698A68C9680068FFF762
:1021D000CDFF22E00A68052A10D00268136A156A4A
:1021E0006D086D0015620568AA690969F026B24399
:1021F00009011143A961006803620EE0012070BD6E
:102200000A698968006800F00AF806E00A698968C6
:10221000006800F015F800E00124204670BD30B5DC
:10222000036A046A6408640004628469F025AC43AC
:10223000120122430A24A3430B438261036230BD8F
:1022400030B5036A1024A34303628469036A0F252F
:102250002D031203AC432243A024A34309011943D5
:102260008261016230BD10B5818CC90707D0016859
:102270004A6801235B049A43836A1A434A60818C4B
:10228000890707D501684A6801231B049A43C36A7A
:102290001A434A60818C490707D501684A680123BF
:1022A0009B049A43036B1A434A60818C090707D544
:1022B00001684A680123DB039A43436B1A434A606F
:1022C000818CC90607D50268916801231B039943D5
:1022D000836B19439160818C890607D501688A68F0
:1022E00001235B039A43C36B1A438A60818C4906BE
:1022F00012D503685A6801210905046C8A432243F8
:102300005A60026C8A4207D10268516803235B0558
:102310009943436C19435160818C090607D50168C4
:102320004A680123DB04806C9A4302434A6010BD73
:10233000F8B50446002680300660FEF71DFA054613
:1023400020680068124F000709D501212B460022A2
:1023500049052046009700F04BFA00280DD120686F
:10236000006840070BD501212B4600228905204635
:10237000009700F03DFA002801D00320F8BD20208E
:10238000A067E0672666603426750020F8BD00006F
:10239000FFFFFF0110B5806A0022014640314A83E9
:1023A0004A82FFF7D9F910BD10B5EFF31081012271
:1023B00082F3108802681368FF242134A34313605A
:1023C00081F31088EFF31081012282F310880268F4
:1023D00093685B085B00936081F31088016E0129AC
:1023E0000BD1EFF31081012282F310880268136889
:1023F0001024A343136081F310882021C1670021BA
:102400000166416610BD10B5FFF70EFE10BD70B538
:10241000014640318B8BC46F0268222C04D0906936
:1024200008210843906170BD526A446D1A402280B1
:10243000426D921C42654A8B521E4A834A8B002A87
:10244000F1D1EFF31082012383F3108803681C6835
:10245000FF252135AC431C6082F31088EFF3108216
:10246000012383F3108803689C68640864009C60FF
:1024700082F310882022C26700224266036E012B7D
:1024800002D0FFF765FB70BD0266EFF310820123F7
:1024900083F310880468256810239D43256082F328
:1024A00010880268D469E443E40600D41362098BFF
:1024B000FFF750F970BD70B5014640318B8BC46F8A
:1024C0000268222C04D0906908210843906170BDF5
:1024D000526A1A40436D1A70426D521C42654A8B13
:1024E000521E4A834A8B002AF1D1EFF31082012356
:1024F00083F3108803681C68FF252135AC431C60FA
:1025000082F31088EFF31082012383F310880368AD
:102510009C68640864009C6082F310882022C26773
:1025200000224266036E012B02D0FFF711FB70BD43
:102530000266EFF31082012383F310880468256894
:1025400010239D43256082F310880268D469E44318
:10255000E40600D41362098BFFF7FCF870BD00009D
:10256000F8B50446016880682369E6691843636921
:102570000025334318436A4A0B686A4E33400343CD
:102580000B602068416803231B039943E3681943E8
:1025900041602168A069914201D0236A18438B6889
:1025A0000B263602B34303438B605F4923685F48C1
:1025B0008B420AD1C0680C21084027D0042829D0BA
:1025C000082825D00C2811D10EE093420ED1C16805
:1025D00003208002014019D001208002091A19D07D
:1025E000091A15D0814201D1082700E010274F4970
:1025F0004F4840398600934232D1002F0CD0022F31
:102600000DD0042F10D0082F7FD126E00027EEE751
:102610000227ECE70427EAE7FEF720FD06E0096859
:10262000C90605D4304603E0FEF738FD002872D015
:10263000626851005118814267D81103814264D306
:10264000010E06025008002330185941FDF7A6FD7F
:1026500003210902411A374A55E00120C003E7E788
:102660000122E369D20393422BD13B0000F04AF9E7
:102670000906090C4D114D4D4D274D00FEF7EEFC9E
:1026800009E0FEF7FBFC06E00968C90605D4304600
:1026900003E0FEF703FD00283DD0616840004A08D2
:1026A0008018FDF761FE80B20146234A103991423D
:1026B0002BD8511C01400007400F084329E0104669
:1026C000EBE73B0000F01EF90906090C211221215D
:1026D00021232100FEF7C2FC0AE0FEF7CFFC07E051
:1026E0000968C90606D4304604E00EE0FEF7D6FCC1
:1026F000002810D061684A081018FDF735FE80B236
:1027000001460D4A1039914203D9012503E01046D4
:10271000F0E72168C86000206066A0662846F8BD22
:1027200000480040F369FFEF0044004040100240C1
:1027300000093D00FFFC0F00EFFF000070B5416590
:10274000014640310A834A8300224266012384689D
:102750001B03FF259C4204D10469002C13D1214C9A
:102760000AE07F26002C09D001252D07AC420CD1B0
:102770000469002C05D03F248C8307E00469002CF9
:1027800001D08E8302E08D8300E08A8380210A508D
:102790002221C167EFF31081012484F310880468BB
:1027A000A56801263543A56081F3108881689942A8
:1027B00002D10169002912D00B49416674210A54E3
:1027C000EFF31081012282F3108800680268FF2372
:1027D00021331A43026081F31088002070BD034941
:1027E000EBE70000FF010000B72400080F240008F9
:1027F000FFB581B005461746044660350A9E55E090
:10280000701C53D0FDF7B8FF0499401AB04230D87D
:10281000002E2ED020680168490747D5C069C04303
:10282000000543D401202168C0020862EFF3108044
:10283000012181F3108821680B68FF22A1329343A4
:102840000B6080F31088EFF31080012181F3108872
:1028500021688A68520852008A6080F3108820201C
:10286000A067E0678034206000202875032005B051
:10287000F0BDEFF31080012181F3108821680B680F
:10288000FF22A13293430B6080F31088EFF3108096
:10289000012181F3108821688A68520852008A60F9
:1028A00080F310882020A067E067DDE72068C16919
:1028B0000298884304D00020B842A1D00020D6E777
:1028C0000120F9E710B50248FEF748FF10BD0000EF
:1028D00080000020F8B5040C8BB2264682B25E431D
:1028E0000D0C1046370C58433604801900217941ED
:1028F00016466E43370C36048019794126466E43DE
:102900008919F8BD30B47446641E2578641CAB4246
:1029100000D21D46635D5B00E31830BC1847000021
:102920008307FF22DB0E9A408907090E9940002891
:1029300008DB830809489B001B181868904308436C
:10294000186070470007000F0838830804489B0090
:102950001B18D86990430843D861704700E400E031
:1029600000ED00E0FEF7F8F8FFF77DFBFDF7E1FD75
:10297000FFF7A8F9FFF7C9FBFFF745FD0B49102248
:1029800008468438FFF7A8F80848D038FEF728F939
:102990000120FEF7B3F90320FEF788F90F2108465E
:1029A000FEF776F90020FEF78FF9FEE7040100201C
:1029B00000000000000000000102030406070809EF
:1029C000030406080C101820300000000001020368
:1029D00004000000F429000800000020340000007A
:1029E00004010008282A000834000020A407000081
:1029F000200100084F6B004572726F7200526561D2
:102A00006400000000000000000000000000000062
:102A100000000000000000000100000004000000B1
:082A200000000000000020008E
:04000005080000C12E
:00000001FF
