:020000040800F2
:100000006817002021020008471A0008731600082C
:10001000451A00088B030008611D0008000000005D
:10002000000000000000000000000000890100083E
:100030008D03000800000000CD0100084D1B0008E2
:100040003B0200083B0200083B0200083B0200089C
:100050003B0200083B0200083B0200083B0200088C
:100060003B0200083B0200083B0200083B0200087C
:100070003B0200083B0200083B0200083B0200086C
:100080003B0200083B0200083B0200083B0200085C
:100090003B0200083B0200083B0200083B0200084C
:1000A0003B020008CD1B00083B0200083B02000891
:1000B0003B0200083B0200083B0200083B0200082C
:1000C0003B0200083B0200083B0200083B0200081C
:1000D0003B0200083B0200083B0200083B0200080C
:1000E0003B0200083B0200083B02000800F002F857
:1000F00000F03AF80AA090E8000C82448344AAF188
:100100000107DA4501D100F02FF8AFF2090EBAE885
:100110000F0013F0010F18BFFB1A43F0010318473B
:100120001829000038290000103A24BF78C878C187
:10013000FAD8520724BF30C830C144BF04680C60ED
:10014000704700000023002400250026103A28BF35
:1001500078C1FBD8520728BF30C148BF0B60704739
:100160001FB51FBD10B510BD00F0D6F81146FFF742
:10017000F7FF01F06BFE00F0F4F803B4FFF7F2FFB5
:1001800003BC00F0FBF80000224B19680868B0E8D7
:10019000F00F80F30988BFF36F8F4FF0000080F3FA
:1001A00011884EF00D0E70470000000006480068F0
:1001B000006880F3088862B661B6BFF34F8FBFF363
:1001C0006F8F00DF00BF00BF08ED00E0EFF3098094
:1001D000BFF36F8F0F4B1A6820E9F00F106008B55E
:1001E0004FF0500080F31188BFF34F8FBFF36F8F34
:1001F00002F024FA4FF0000080F31188BDE80840B7
:1002000019680868B0E8F00F80F30988BFF36F8FB2
:10021000704700BF28000020EFF305807047000002
:100220000948804709480047FEE7FEE7FEE7FEE78A
:10023000FEE7FEE7FEE7FEE7FEE7FEE704480549C6
:10024000054A064B70470000C91B0008ED00000876
:100250006811002068170020681300206813002030
:1002600010B5203AC0F00B80B1E81850203AA0E851
:100270001850B1E81850A0E81850BFF4F5AF5FEA85
:10028000027C24BFB1E81850A0E8185044BF18C938
:1002900018C0BDE810405FEA827C24BF51F8043BDF
:1002A00040F8043B08BF7047D20728BF31F8023B33
:1002B00048BF11F8012B28BF20F8023B48BF00F8C7
:1002C000012B70474FF0000200B513469446964646
:1002D000203922BFA0E80C50A0E80C50B1F1200159
:1002E000BFF4F7AF090728BFA0E80C5048BF0CC007
:1002F0005DF804EB890028BF40F8042B08BF704765
:1003000048BF20F8022B11F0804F18BF00F8012BD6
:100310007047704770477047754600F02BF8AE463F
:1003200005006946534620F00700854618B020B501
:10033000FFF784FFBDE820404FF000064FF00007B4
:100340004FF000084FF0000B21F00701AC46ACE87D
:10035000C009ACE8C009ACE8C009ACE8C0098D46EA
:10036000704710B50446AFF300802046BDE810404A
:10037000FFF703BF0048704704110020014918200F
:10038000ABBEFEE7260002007047FEE7704772B67C
:10039000FEE700002DE9F84FDFF8B891002409F1DD
:1003A000040A0AF1040B23460F270BF1040EC9E0DF
:1003B0000125A5402A40AA427DD1674ED1F804C04C
:1003C000ACEB0608B44532D014DCBCF1030F3AD0D4
:1003D00009DCBCF1000F2AD0BCF1010F1CD0BCF12C
:1003E000020F31D11DE0BCF1110F17D0BCF1120F7B
:1003F0002AD119E0B8F5881F19D006DCB8F5803F7E
:1004000015D0B8F5801F1FD111E0B8F5001F0ED030
:10041000B8F5041F18D10AE0CB6815E0CB681B1DA6
:1004200012E0CB6808330FE0CB680C330CE08B682C
:100430002BB1012B4FF0080303D0456104E00423E6
:1004400002E0056100E00023FF2A01D8064601E032
:1004500000F104064FEA840501D9A5F12005D6F87C
:10046000008007FA05FC28EA0C0803FA05F548EABB
:100470000508C6F800804D68ED0062D5374DAE69BD
:1004800046F00106AE61AD6924F0030605F00105F2
:100490000095334D06EB050CDCF80850A607360F27
:1004A00007FA06F825EA0805DFF8B880404503D1C9
:1004B0004FF0000817E044E0DFF8AC80404502D17F
:1004C0004FF001080FE0DFF8A480404502D14FF063
:1004D000020808E0DFF89880404502D14FF0030899
:1004E00001E04FF0040808FA06F848EA0508CCF8DD
:1004F00008804D68D9F80060ED034D4601D51643DC
:1005000000E096432E604D68DAF80060AD03554672
:1005100001D5164300E096432E604D68DBF800607D
:10052000ED025D4601D5164300E096432E604D680E
:10053000DEF80060AD02754601D5164300E0964333
:100540002E60641C0D682A46E5407FF431AFBDE89B
:10055000F88F00000004014000001110001002405C
:100560000000014000080140000C01400010014063
:10057000001401400AB1016170470904FBE7000063
:1005800001488068704700001800002070B5040022
:1005900025D094F83D00002520B984F83C50204631
:1005A00000F04EF9242084F83D002068016821F015
:1005B000010101602068016841F400410160206888
:1005C000016821F40041016000F0E0FA4D4A6168E1
:1005D000914201D84C4900E04C49884201D20120A7
:1005E00070BD4B492368B0FBF1F15E6826F03F0611
:1005F0000E435E606368934206D94FF49673594385
:100600004FF47A73B1FBF3F12368491C1E6A26F09C
:100610003F06314319626168914210D84900401E7B
:10062000B0FBF1F2521CC2F30B02042A01D20420E7
:1006300022E0B0FBF1F0401CC0F30B001CE0A2680C
:10064000F2B301EBC10303EB0116431EB3FBF6F358
:100650005B1C43F480431B0549D092B301EBC102FC
:1006600002EB0111401EB0FBF1F0401CC0F30B0087
:1006700040F4804040F400402168CA694CF6FF73A2
:100680009A431043C861D4E9071001432068026807
:1006900022F0C00211430160D4E903010143206844
:1006A000826848F2FF339A4311438160D4E905011F
:1006B00008432168CA6822F0FF021043C86001E0C5
:1006C0000EE016E02068016841F001010160256438
:1006D000202084F83D00256384F83E50002070BD42
:1006E00001EB4106431EB3FBF6F35B1CB3E70120AD
:1006F000C2E701EB4101401EB0FBF1F0401CC0F32A
:100700000B00B7E7A086010080841E0000093D00B1
:1007100040420F002DE9F84F1F4690468A46044696
:10072000DDF82890FFF72CFF054694F83D002028BF
:100730007FD11923012240492046009501F026F877
:10074000002876D194F83C00012872D0012084F86A
:100750003C0020680168C90703D1016841F001012C
:1007600001602068016821F400610160212084F8A3
:100770003D00102084F83E0000262664C4F8248042
:100780006785608D20852D48E0622B464A4651469C
:10079000204600F087FF90B9206841698069009089
:1007A00036E02A464946204601F06FF850B1206CE9
:1007B000042804D12068016841F40071016001201F
:1007C000BDE8F88F606A216800780861606A401CA3
:1007D0006062618D491E6185218D491E89B2218526
:1007E00022685369DB435B070BD451B10078106179
:1007F000606A401C6062608D401E6085208D401ED6
:1008000020852A464946204600F09AFF0028CED18E
:10081000208D0028C5D154F83D0B016841F40071CA
:100820000160202004F81E09E67766770020C7E7FC
:10083000FFE70220C4E70000020010000000FFFFF5
:1008400010B586B0002100910191029103910068DA
:100850001349884222D1134CA06940F00800A061DE
:10086000A069694600F0080004904FF440700090C1
:1008700012200190032003900B48FFF78BFD0B48DB
:10088000416841F0E06141F002014160E06940F4FB
:100890000010E061E06900F40010049006B010BDA3
:1008A0000054004000100240000C014000000140D4
:1008B0000248816802781144816070471800002066
:1008C000074810B5016841F010010160032000F0F5
:1008D00095F80F2000F006F800F03EF8002010BD5B
:1008E0000020024000B5014687B00022192000F028
:1008F00065F8192000F054F81348816941F400614B
:100900008161806905A900F400600690684600F0E6
:100910001DF900F04BF90D490D4AB0FBF1F10D48FE
:10092000491E0260416040F2E7320021C0E9032124
:10093000816000F058FC10B1012007B000BD0548EF
:1009400000F080FCF9E700000010024040420F0078
:10095000002C0140CC0300200F4808B5816941F00C
:1009600001018161816901F001010091C16941F0DA
:100970008051C161C069002200F0805000900F21B9
:10098000901E00F01BF80548416821F0E06141F03D
:100990008061416008BD000000100240000001407D
:1009A000002809DB00F01F0201219140400980006E
:1009B00000F1E020C0F8001170470000F0B40E4BC9
:1009C0001B680C46C3F30223C3F10705042D00D9AD
:1009D0000425191D072901D2002300E0DB1E012692
:1009E00006FA05F1491E214099409E40761E1640A8
:1009F0003143F0BC01F0B5B90CED00E0064900F060
:100A0000070208684FF6FF03184040EA0220034A35
:100A100010430860704700000CED00E00000FA058C
:100A20002DE9F0470F46050061D0434E306800F0D5
:100A30000700B84209D2306820F007003843306020
:100A4000306800F00700B84251D128683B4C81075C
:100A500012D5400703D5606840F4E06060602878F4
:100A6000000703D5606840F4605060606068A96862
:100A700020F0F000084360602878C00728D068683C
:100A8000012810D02168022810D0890700292EDA09
:100A9000616821F0030101436160FFF771FD804649
:100AA00041F288390DE021688903EFE78901EDE71C
:100AB000FFF766FDA0EB0801494502D90320BDE818
:100AC000F0876068696800F00C00B0EB810FEFD12F
:100AD000306800F00700B8420BD9306820F00700FA
:100AE00038433060306800F00700B84201D0012080
:100AF000E5E72878400705D56068E96820F4E060FC
:100B0000084360602878000706D56068296920F4EA
:100B1000605040EAC100606000F058F86168084A1F
:100B2000C1F30311515CC8400649086006480068DB
:100B3000FFF7D8FE0020C2E700200240001002406C
:100B4000EC290008240000201C0000200F22026075
:100B50000C4A536803F003034360536803F0F00347
:100B60008360536803F4E063C36052684FF4E0634A
:100B700003EAD20202610448006800F0070008603E
:100B80007047000000100240002002400448054960
:100B900000684968044AC1F30221515CC8407047AB
:100BA0002400002000100240FC29000804480549E8
:100BB00000684968044AC1F3C221515CC8407047CB
:100BC0002400002000100240FC29000812A185B07A
:100BD0000FC98DE80F0014A0144A006804905168F2
:100BE000134801F00C03042B10D0082B0ED1C1F3D5
:100BF0008343C9031DF803000AD5516804AAC1F351
:100C00004041515C0A4A5043B0FBF1F005B07047D7
:100C100008494843FAE700000203040506070809EB
:100C20000A0B0C0D0E0F1010010200000010024004
:100C300000127A0000093D002DE9F84F040070D041
:100C40002078C04DC00749D06868C0F381000128F2
:100C500007D06868C0F38100022809D16868C00322
:100C600006D52868800339D560680028E7D035E0CC
:100C70006068B0F5803F0BD010B1B0F5A02F11D057
:100C8000286820F480302860286820F4802002E062
:100C9000286840F480302860606890B1FFF770FCED
:100CA00006460AE0286840F480202860F0E700BF8C
:100CB000FFF766FC801B642873D828688003F7D58B
:100CC0000CE0FFF75DFC064605E000BFFFF758FCAF
:100CD000801B6428F0D828688003F7D420789A4EC7
:100CE00080074FF001094FF0000839D5686810F00F
:100CF0000C0F07D06868C0F38100022809D168682A
:100D0000C00306D42868800714D52069012808D1BB
:100D100010E02069B0B1C6F80090FFF731FC07463B
:100D200005E00AE1FFF72CFCC01B0228C4D82868A4
:100D30008007F7D52868616920F0F80040EAC10013
:100D400028600DE0C6F80080FFF71AFC074604E0B3
:100D5000FFF716FCC01B022823D828688007F7D4A9
:100D6000207800072CD57948A169D9B1C0F8009046
:100D7000FFF706FC074604E0FFF702FCC01B022851
:100D80000FD8686A8007F7D571484FF4FA510068A8
:100D9000B0FBF1F0009000BF0098411E0091FAD224
:100DA0000EE080E0C0F80080FFF7EAFB074604E0B1
:100DB000FFF7E6FBC01B022875D8686A8007F7D4E6
:100DC0002078400760D5E8690027C00008D4E869AA
:100DD00040F08050E861E869012700F08050009001
:100DE0005C480168C90513D40168834641F48071E9
:100DF0000160FFF7C5FB824606E000BFFFF7C0FBBE
:100E0000A0EB0A0064284ED8DBF80000C005F5D539
:100E1000E06801280AD008B1052813D0286A20F01C
:100E200001002862286A20F0040002E0286A40F0ED
:100E300001002862E06841F2883B98B1FFF7A0FB0F
:100E400082460BE0286A40F004002862EEE700BF0B
:100E5000FFF796FBA0EB0A0159455AD8286A80078C
:100E6000F6D50CE0FFF78CFB824605E0FFF788FB28
:100E7000A0EB0A0159454CD8286A8007F6D41FB167
:100E8000E86920F08050E861E06988B36968C1F3DF
:100E90008101022944D00228C6F8608004D0FFF7FF
:100EA0006FFB044638E034E0FFF76AFB074604E0D6
:100EB000FFF766FBC01B02282BD828688001F7D4F7
:100EC000206AB0F5803F05D16868A16820F4003041
:100ED00008436860D4E908010843696821F4741183
:100EE00008436860C6F86090FFF74AFB044606E0D6
:100EF00025E000BFFFF744FB001B022809D8286843
:100F00008001F7D51BE000BFFFF73AFB001B02286A
:100F100002D90320BDE8F88F28688001F4D40EE0E0
:100F20000128F7D06868226A00F48031914204D128
:100F3000616A00F47010884201D00120EAE70020C5
:100F4000E8E70000001002400000424280044242F4
:100F5000240000200070004070B5040009D0606AD1
:100F6000002540B125616561A56294F8510040B14A
:100F70000CE0012070BD6068B0F5827FF4D0E561BF
:100F8000F2E784F85050204600F040F8022084F840
:100F900051002068016821F040010160A08821898A
:100FA00000F4827001F404410843A18901F4006156
:100FB0000843217C01F002010843217D01F0010179
:100FC0000843218B01F400710843217F01F03801AF
:100FD000084394F8201001F080010843218D01F4AA
:100FE0000051084321680860A069042101EA10400B
:100FF000216848602068C16921F40061C1616565AC
:10100000012084F85100002070BD000030B585B08B
:1010100000240094019402940394006814498842C7
:1010200023D11448816941F480518161816901F4BF
:1010300080510491816941F00401816180690E4D04
:1010400000F004000490B0200090022001900320E2
:10105000039069462846FFF79DF94020CDE900043A
:10106000694628460294FFF795F905B030BD0000A7
:101070000030014000100240000801402DE9F84F07
:10108000044690F8500000271D4616468946012860
:101090000DD04FF0010B84F850B0FFF771FA804685
:1010A00094F85100BA46012804D0022793E00220A8
:1010B000BDE8F88FB9F1000F73D0002E71D0032076
:1010C00084F85100C4F854A0C4F83090A686E6868F
:1010D000C4F838A0A4F83CA0A4F83EA0C4F844A0EA
:1010E000C4F840A0A068B0F5004F09D1206801689D
:1010F00021F0400101602068016841F480410160F5
:1011000020680168490603D4016841F0400101608C
:10111000E068B0F5006F606803D030B3012E24D0D2
:1011200041E008B1012E1CD1206B21680088C86005
:1011300006E020688168890709D5216B0988C160AC
:10114000206B801C2063E08E401EE08609E0FFF7E4
:1011500017FAA0EB0800A84202D3681C01D031E0C6
:101160007DB3E08E0028E4D120E0206B2168007878
:10117000087306E020688168890709D5216B097822
:101180000173206B401C2063E08E401EE0860AE065
:10119000FFF7F6F9A0EB0800A84203D3681C02D0C1
:1011A00010E017E06DB1E08E0028E3D142462946F9
:1011B000204600F049FC08B120206065A06818B105
:1011C00006E0FFE7032706E02068C168806800901A
:1011D000606D00B1012784F851B084F850A0384602
:1011E00066E77047704710B5040003D094F83D00DF
:1011F00010B107E0012010BD002084F83C0020461B
:1012000000F01EF8022084F83D00211D206800F047
:10121000E3FC012084F8460084F83E0084F83F0097
:1012200084F8400084F8410084F8420084F84300C8
:1012300084F8440084F8450084F83D00002010BD87
:101240007047000090F83D10012901D0012070473F
:10125000022180F83D100168CA6842F00102CA60AC
:1012600000680B49884208D0B0F1804F05D0094989
:10127000884202D00849884204D1816801F0070100
:10128000062903D0016841F0010101600020704788
:10129000002C01400004004000080040704770B579
:1012A0000446006801694FF00005C943890715D459
:1012B000C168C943890711D4E91E01610120207763
:1012C000206880698007204602D0FFF7E7FF04E02E
:1012D00000F098F8204600F096F82577206801691C
:1012E000C943490717D4C168C943490713D46FF0EC
:1012F00004010161022020772068806910F4407F9A
:10130000204602D0FFF7CAFF04E000F07BF8204639
:1013100000F079F8257720680169C943090716D4D8
:10132000C168C943090712D46FF0080101610420A4
:1013300020772068C0698007204602D0FFF7AEFF03
:1013400004E000F05FF8204600F05DF825772068A3
:101350000169C943C90617D4C168C943C90613D472
:101360006FF010010161082020772068C06910F437
:10137000407F204602D0FFF791FF04E000F042F8E2
:10138000204600F040F8257720680169C943C90765
:1013900008D1C168C943C90704D1891E016120462B
:1013A00000F032F820680169C943090609D4C16810
:1013B000C943090605D46FF0800101612046FFF79B
:1013C00010FF20680169C943490609D4C168C943AF
:1013D000490605D46FF040010161204600F01EF877
:1013E00020680169C94389060BD4C168C9438906CD
:1013F00007D46FF0200101612046BDE87040FFF77F
:10140000F1BE70BD7047704700680349884201D142
:10141000FFF74EBA70470000002C0140704770B5CE
:10142000040004D094F83D00002510B106E001202E
:1014300070BD84F83C50204600F022F8242084F847
:101440003D002068C16821F40051C160204600F0D1
:10145000F9FB2068016921F490410161206841692C
:1014600021F02A0141612068C16841F40051C16046
:101470002564202084F83D0084F83E00002070BDE3
:1014800030B585B000240094019402940394006860
:10149000174988422AD11748816941F48041816106
:1014A000816901F480410491816941F00801816101
:1014B0008069114D00F00800049040200090022047
:1014C00001900320039069462846FEF763FF8020C1
:1014D000CDE90004694628460294FEF75BFF074801
:1014E000416841F0E06141F00401416005B030BD68
:1014F0000038014000100240000C01400000014093
:101500002DE9F84F044690F83E009A4616460D46DF
:10151000202853D1FDB1F6B194F83C0001284DD0FC
:10152000012084F83C0000272764222084F83E0034
:101530002763FFF725F8A6858146E685A0684FF466
:101540008058404501D1206940B12E465FF000052A
:1015500084F83C7027E00120BDE8F88F0026F7E70B
:101560004B46002220212046CDF800A000F0C6FB0B
:1015700008B10320F0E726B1A06840451BD038B180
:1015800008E020684068C0F3080025F8020B07E077
:10159000206980B12068406800F07F0006F8010BE8
:1015A000E08D401EE085E08D0028D9D1202084F810
:1015B0003E000020D0E720684068EFE70220CBE73C
:1015C0002DE9F843044690F83D001F4616460D46A7
:1015D00020284CD1C5B1BEB194F83C00012846D0BA
:1015E000012084F83C004FF00008C4F8408021201E
:1015F00084F83D00FEF7C4FFA6848146E684A06817
:10160000B0F5805F03D004E00120BDE8F8832069D5
:1016100028B12E465FF0000584F83C800EE00026DD
:10162000FAE78021204600F069FBA0B9AEB116F8B8
:10163000010B21684860E08C401EE084E08C4B4642
:101640004FF0000200970028EBD14FF040012046F8
:1016500000F054FB30B10320D7E735F8020BC0F39C
:101660000800E6E7202084F83D000020CDE70220B6
:10167000CBE7FEE701684A69D24352050FD46FF405
:1016800080624A61002140F8301F2022427381733A
:10169000026942F0040202610173012070470020D8
:1016A00070470000F8B50446C06A1E460D4617464E
:1016B000082807D0012805D010F5803F02D0206B04
:1016C000122804D12068016841F48071016013463A
:1016D00000224FF001112046009600F057F840B16B
:1016E00020680068C00502D54FF400702064032014
:1016F000F8BD2069B0F5804F0ED00620216800EAC1
:10170000D51040F0F000086133463A460B492046B8
:1017100000F070F878B902E005F0FE0000E0E8B2F1
:1017200021680861054933463A46891F204600F082
:1017300061F80028DCD00120F8BD0000080001009D
:1017400070B516460D4604460DE02046FFF792FFA1
:1017500008B1012070BD681C05D0FEF711FF801B89
:10176000A84207D835B120684069C0434007ECD48F
:10177000002070BD002044F8300F20216173A07359
:10178000216941F0200121612073E2E72DE9F04752
:101790001E4690460D460446C1F30747DDF82090EB
:1017A00008E0701C06D0FEF7EBFEA0EB0900B0428B
:1017B0000FD876B12068012F18D0806925EA000083
:1017C0000004000C14D000214145EAD00020BDE8FF
:1017D000F087002044F8300F20216173A073216945
:1017E00041F02001216120730120F0E74069E5E725
:1017F0000121E9E72DE9F0479A4691460E46044655
:1018000000254FF02008C1F3074725E02068406914
:10181000C043400514D42068016841F400710160A0
:1018200021686FF480604861256384F83D8084F806
:101830003E50206C40F00400206484F83C501FE0CF
:10184000B9F1FF3F08D0FEF79BFEA0EB0A01494526
:101850000CD8B9F1000F09D02068012F13D080698E
:1018600026EA00000004000C0BD0CFE744F8305FFC
:1018700084F80D80A573206940F020002061257355
:101880000120BDE8F0874069EAE770B516460D46CD
:1018900004460DE02046FFF7EDFE08B1012070BDC3
:1018A000681C05D0FEF76CFE801BA84207D835B136
:1018B00020684069C0430006ECD4002070BD0020C1
:1018C00044F8300F20216173A073216941F0200199
:1018D00021612073E2E700002DE9F04385B0002488
:1018E00025480094019402940394816941F0100109
:1018F0008161816901F010010491816941F0040165
:101900008161816901F004010491816941F008015C
:1019100081618069DFF8648000F008004FF40055B1
:101920000490002229464046FEF724FEDFF850903E
:101930002F11002239464846FEF71CFE009502266C
:1019400001250396CDE9015469464046FEF722FD84
:101950002802CDE90004694648460294FEF71AFDC4
:1019600000970396CDE9015469464846FEF712FDFB
:1019700005B0BDE8F08300000010024000100140F7
:10198000000801400D4810B50B4901600C49416049
:1019900000214FF480428160C0E9031241618161FE
:1019A000C1610162FEF7F2FD002803D0BDE81040DE
:1019B000FEF7EDBC10BD0000005400408800002080
:1019C000A0860100104810B50E4901604FF48271E5
:1019D000416000218160C1604FF480220161C0E953
:1019E00005120822C0E90721416281620A21C16211
:1019F000FFF7B2FA002803D0BDE81040FEF7C7BCDD
:101A000010BD000000300140DC0000200C4810B583
:101A10000A4901604FF416514160002181600C2297
:101A2000C160C0E904128161C161FFF7F8FC0028C0
:101A300003D0BDE81040FEF7AABC10BD003801403D
:101A400034010020FEE7FEE738B50B46009204465D
:101A50000022802100F008F8002804D0606D40F0DA
:101A600020006065032038BD2DE9F8431E469146ED
:101A700088460446089DFEF783FD401B351AFEF795
:101A80007FFD074625480068C0F3CB30684338E047
:101A9000701C37D0FEF774FDC01BA84203D215B1ED
:101AA000009860B32CE02068416821F0E0014160BB
:101AB0006068B0F5827F0BD1A068B0F5004F02D00E
:101AC000B0F5806F04D12068016821F04001016009
:101AD000A06AB0F5005F09D12068016821F40051C7
:101AE00001602068016841F400510160012084F820
:101AF0005100002084F850000320BDE8F883002541
:101B0000401E00902068816838EA010004D000215E
:101B10004945BDD10020F0E70121F9E7240000206C
:101B2000094C4FF40055012229462046FEF722FDBC
:101B3000B42000F0D1F9002229462046FEF71AFD14
:101B4000B42000F0C9F9EEE70010014010B55020B4
:101B500080F31188BFF34F8FBFF36F8F00F048FE03
:101B600018B104494FF080500860002080F31188BC
:101B700010BD000004ED00E010B590B028216846CB
:101B8000FEF7A0FB14210AA8FEF79CFB02200090A0
:101B90000120049010200024059007946846FFF768
:101BA0004BF808B1FEF7F3FB0F20CDE90A040C94C3
:101BB0000D9400210AA80E94FEF732FF002801D0F0
:101BC000FEF7E5FB10B010BD704700000148FFF7BD
:101BD00066BB0000CC030020F0B50268164B174C22
:101BE000174D4FF08047984205D0B84203D0A0422D
:101BF00001D0A84203D122F070064A6832439842CD
:101C000005D0B84203D0A04201D0A84203D122F4AB
:101C10004074CA6822434C6922F080022243026069
:101C20008A68C2620A688262984201D109690163C6
:101C300001214161F0BD0000002C01400004004082
:101C40000008004070B5044600680169E26821F4AC
:101C50004051114301612169A0680843616908434B
:101C60002168CA6841F20C639A430243CA60206843
:101C70004169A26921F44071114341611E49206804
:101C8000884202D1FEF792FF01E0FEF77FFF00EBF2
:101C9000C00101EB0012606864218000B2FBF0F328
:101CA000B3FBF1F36FF018067343B2FBF0F5B2FB30
:101CB000F0F605EB8305322303EB0515B5FBF1F5D3
:101CC000B6FBF1F605F0F00505EB0615B2FBF0F6F4
:101CD000B2FBF0F0B0FBF1F06FF01802504306EBEE
:101CE000800003EB0010B0FBF1F0216800F00F0062
:101CF0002844886070BD0000003801402DE9F041A3
:101D0000984617460E460446069D1DE0681C1BD0EB
:101D10002DB1FEF735FCA0EB0800A84214D92068CD
:101D2000C16821F4D071C1602068416921F00101CE
:101D30004161202084F83D0084F83E00002084F8B2
:101D40003C000320BDE8F0812068006836EA00000E
:101D500004D00020B842D9D00020F3E70120F9E7F1
:101D6000FEE70907090E002804DB00F1E02080F8F7
:101D70000014704700F00F0000F1E02080F8141DFF
:101D800070470000DFF8708001271C4C4FF0FF36D1
:101D9000AA253346012219491948FFF7B1FB2078DB
:101DA000FF28F6D020B101281DD002280DD11EE059
:101DB0006078012814D0002188F80010A5703346FF
:101DC0000122A11C0E48FFF7FBFBFF200D492070EC
:101DD0004FF080500860BFF34F8FBFF36F8FD8E78D
:101DE00088F80070EAE7084807707E2002E007489C
:101DF0000770E7206070E1E7000000201400002079
:101E00003401002004ED00E0010000200200002069
:101E10000B4C4FF40077DFF82C800B4EFD0420783C
:101E200001280AD0002239464046FEF7A3FB356060
:101E3000BFF34F8FBFF36F8FF1E70122F3E700008D
:101E4000000000200008014004ED00E09CB0FEF717
:101E500037FDFFF791FEFFF73FFDFFF793FDFFF71B
:101E6000B1FDFFF7D3FD1C2216496846FEF7F8F9CD
:101E70000021684600F03CF8134C12491C222060F7
:101E80001C3107A8FEF7ECF9002107A800F030F894
:101E90000C4960601C2238310EA8FEF7E1F90021E0
:101EA0000EA800F025F80749A0601C22543115A89F
:101EB000FEF7D6F9002115A800F01AF8E06000F04E
:101EC00012F8FEE77C2900080400002001460020EB
:101ED000842900D0C81C704710B500B9012000F05B
:101EE00049FB002010BD10B500F06AFB002010BDBA
:101EF0007FB50D4604464169B0F9080081B1A1697A
:101F000071B1FFF7E3FFD4E905128DE80700D4E9CA
:101F100000102B46226900F040FC039004B070BD15
:101F2000FFF7D4FF03A9CDE90001208A2B4682B236
:101F3000D4E9001000F004FC012801D00020EDE7F6
:101F40000398EBE72DE9F041184C0F46054666690A
:101F50002068001D00F04AFA38B9206890F82C106B
:101F600001208840A1698143A161681C07D137B174
:101F70002168BDE8F0410E48091D00F07BBA2068D9
:101F80003544B5424560216805D2A068BDE8F041FE
:101F9000091D00F057BA6068091D00F053FA206B64
:101FA000854200D22563BDE8F081000028000020B2
:101FB000F00400202DE9F041054600F067FA2E4CB0
:101FC0002069401C206120682C4F10B1E06940B3AB
:101FD0002DE025602069012829D1002606EB860026
:101FE00007EB800000F020FA761C072EF6D323487A
:101FF0008C3000F019FA2148A03000F015FA1F4883
:10200000B43000F011FA1D48C83000F00DFA1B483A
:10201000DC3000F009FA19488C3060601430A060A0
:1020200005E02068E96AC06A884200D82560E06A55
:10203000401CE062E96A0120A26988401043A06167
:1020400001EB810007EB8000291D00F013FA00F07E
:102050003DFAE06900280CD02068E96AC06A88422D
:1020600007D207494FF080500860BFF34F8FBFF38E
:102070006F8FBDE8F08100002800002014040020CC
:1020800004ED00E010B5044690F8510058B1012865
:102090000CD002280FD0502080F31188BFF34F8F4F
:1020A000BFF36F8FFEE7206B00F024FA2046BDE8F7
:1020B000104000F01FBA10BD10484FF440614207B5
:1020C00006D0C01D0D4920F00700411AC1F540613E
:1020D0000B4A00230144C2E900030839103A21F0F9
:1020E000070111604B600B600B1AC0E9001393608D
:1020F0004FF000405360D06070470000040500209E
:1021000074000020144E154CA6F1C8074FF08058FB
:10211000DFF84C9012E000BF00F0B8F9F068C56835
:10212000281D00F063F92069401E2061E068401E10
:10213000E06000F0CBF92846FFF7A4FFE068002834
:10214000EAD138680128F9D9C9F80080BFF34F8F68
:10215000BFF36F8FF2E70000DC04002028000020AE
:1021600004ED00E02DE9F0479A46DDE90984814657
:102170006FF00303206B03EB82021044089D20F0F4
:102180000706700707D0502080F31188BFF34F8FE8
:10219000BFF36F8FFEE723180A5C83F834200A5CD4
:1021A00012B1401C1028F6D3002784F84370072D85
:1021B00000D30625E562C4E91157201D00F03FF960
:1021C00004F1180000F03BF92461C5F107006462D6
:1021D000A061E76484F8507052464946304600F0EA
:1021E000BFF82060B8F1000F01D0C8F80040BDE88A
:1021F000F087000030B5114900E011460A688242BC
:10220000FBD34B685C18844203D140681844486093
:10221000084643681C18944209D1084C103C2468B5
:10222000A24209D052681A4442600A6812680260E9
:10223000814200D0086030BD0460F9E774000020DE
:1022400006484168096829B14168C968C968496890
:10225000016370474FF0FF31FAE7000028000020CB
:1022600008484068401C4FF0500080F3118804D0AB
:10227000BFF34F8FBFF36F8FFEE7BFF34F8FBFF3F7
:102280006F8FFEE77C0000202DE9F0410546002716
:1022900000F0CCF9314E306808B9FFF70DFFF06857
:1022A00005424BD1C5B3083568070ED005F00700CD
:1022B000C0F108000544680707D0502080F311885A
:1022C000BFF34F8FBFF36F8FFEE72DB3706885426A
:1022D00034D82248103001460C6801E020460C46F4
:1022E0006168A94202D221680029F7D131688C4285
:1022F00024D007682168016060680837411B1029F5
:102300000FD96019420708D0502080F31188BFF31D
:102310004F8FBFF36F8FFEE710E041606560FFF7FE
:1023200069FF61687068401A7060B268904200D2BC
:10233000B060F06801430020C4E9000100F0BCFA7D
:10234000780707D0502080F31188BFF34F8FBFF379
:102350006F8FFEE73846BDE8F08100006400002082
:1023600010B5031F4FF080741C601B1F21F001018A
:102370001960191F024B0B60143940380A6010BDF8
:102380006122000808B5134E134C144DDFF850902D
:1023900000274FF0FF3A4FF080583078012808D1DD
:1023A00037700123621C00210E48CDF800A0FEF713
:1023B000B1F92878012806D12F7053460122611CFB
:1023C0000948FEF75BFEC9F80080BFF34F8FBFF3EB
:1023D0006F8FE2E7010000201400002002000020BF
:1023E00004ED00E088000020DC000020D0E901328C
:1023F00001699A60D0E901235A604A68824201D19A
:1024000082684A60002202610868401E086008680D
:1024100070470000034B036003F154000860802004
:10242000106070477801002000F108014FF0FF3282
:10243000C0E90112C1600161002101607047002103
:102440000161704730B50B685A1C02D000F10802D8
:1024500002E0026904E02246546825689D42FAD9E8
:1024600053684B6099608A60516008610168491C3B
:10247000016030BD42684A6093688B609368596020
:10248000916008610168491C01607047502080F329
:102490001188BFF34F8FBFF36F8F0A494868401C04
:1024A000486001280CD10848006810F0FF0F07D0E1
:1024B000502080F31188BFF34F8FBFF36F8FFEE77B
:1024C000704700007C00002004ED00E008494868E7
:1024D00028B1401E486001D180F311887047502018
:1024E00080F31188BFF34F8FBFF36F8FFEE70000BB
:1024F0007C00002070B5002827D0144DA0F10804FE
:102500006168E868014207D1502080F31188BFF369
:102510004F8FBFF36F8FFEE722683AB1502080F3F0
:102520001188BFF34F8FBFF36F8FFEE78143616068
:1025300000F07CF860686968084468602046FFF72E
:1025400059FEBDE8704000F0B7B970BD64000020CE
:102550004FF0E02000210161816105494FF47A725A
:102560000968B1FBF2F1491E416107210161704721
:102570002400002010B5020014D00F48806B38B141
:10258000502080F31188BFF34F8FBFF36F8FFEE7AA
:1025900000F04CF800211046FFF7D4FC00F08CF955
:1025A000002807D105494FF080500860BFF34F8FD6
:1025B000BFF36F8F10BD00002800002004ED00E085
:1025C00010B586B00024039405AA04A903A80494B6
:1025D000FFF720FFDDE903010094CDE9011000239E
:1025E0000EA11048059A00F0D8F80F49002848635A
:1025F00011D0502080F31188BFF34F8FBFF36F8F3E
:102600004FF0FF3008630120C8614C6106B0BDE89F
:10261000104000F041B806B010BD000049444C45E0
:102620000000000005210008280000200248816BFE
:10263000491C816370470000280000201448816B0A
:1026400011B1012141627047002141628169B1FAF3
:1026500081F1C1F11F0101EB81020E4951F82230D5
:102660006BB101EB820101F108034A6852684A60CC
:102670009A4201D152684A60D16801607047502087
:1026800080F31188BFF34F8FBFF36F8FFEE7000019
:1026900028000020140400201CB526490878019069
:1026A000FF20087008788DF800009DF800009DF864
:1026B000002000F0F000904207D0502080F31188F5
:1026C000BFF34F8FBFF36F8FFEE79DF800001A4BEB
:1026D00000F0500018700720986005E09DF8002079
:1026E00052008DF80020401E9DF800201206F5D4FF
:1026F0009860032807D0502080F31188BFF34F8FD4
:10270000BFF36F8FFEE74FF4407098600198087038
:102710000A48016841F470010160016841F07041AC
:102720000160FFF715FF00205860FDF73FFD002016
:102730001CBD000000E400E07C00002020ED00E073
:102740002DE9FF5F8346DDE90E87994616468A46E6
:102750009000FFF799FD05001CD05420FFF794FD71
:10276000040014D00020256384F85100CDE9024014
:10277000CDE900874B46324651465846FFF7F2FCFA
:102780002046FFF717FC012004B0BDE8F09F284663
:10279000FFF7B0FE4FF0FF30F6E7F0B585B0DDE9AA
:1027A0000B640A9DA6B1DCB154270097266302266C
:1027B00084F85160002604AFCDE90246CDE9005708
:1027C000FFF7D0FC2046FFF7F5FB049805B0F0BDFD
:1027D000502080F31188BFF34F8FBFF36F8FFEE758
:1027E000502080F31188BFF34F8FBFF36F8FFEE748
:1027F0002DE9F0412E4C0027A06B40B1206A401C0F
:102800002062606A00B101273846BDE8F081666940
:10281000761C666113D16068006838B1502080F37F
:102820001188BFF34F8FBFF36F8FFEE76068A16819
:102830006160A060A06A401CA062FFF701FD206BF0
:10284000DFF87080864209D36068006880B16068F4
:10285000C068C568686886420DD220632068C06A77
:1028600000EB800158F821000128CAD90127C8E7E8
:102870004FF0FF30F1E7281DFFF7B8FDA86A18B147
:1028800005F11800FFF7B2FDE86A0121A269814055
:102890001143A16100EB800108EB8100291DFFF7C6
:1028A000E9FDE86A2168C96A8842CDD30127CBE7F0
:1028B00028000020140400202DE9F0472C4D0024AE
:1028C0002746A86B38B1FFF7E1FDA86B401EA8634F
:1028D000A86B40B146E0502080F31188BFF34F8FC2
:1028E000BFF36F8FFEE72969224E0120D1B3A6F115
:1028F000B40980463068E8B1F068C46804F1180093
:10290000FFF774FD201DFFF771FDE06AAA6908FA60
:1029100000F11143A96100EB800109EB8100211D49
:10292000FFF7A8FDE06A2968C96A8842E2D3C5F8C2
:102930002480DFE70CB1FFF783FC2C6A44B14646E4
:10294000FFF756FF00B16E62641EF9D100202862C5
:10295000686A38B10849012738070860BFF34F8F0C
:10296000BFF36F8FFFF7B2FD3846BDE8F087000078
:1029700028000020C804002004ED00E02C2A0008F4
:10298000211B000800000000000000008000000083
:102990000000000000000000042A0008851D000857
:1029A000FDFF0000000000008000000000000000AB
:1029B00000000000102A0008111E0008FDFF0000A2
:1029C0000000000080000000000000000000000087
:1029D0001C2A000885230008FDFF000000000000FD
:1029E0008000000000000000000000000000000067
:1029F00000000000010203040607080900000000AF
:102A000001020304626C655F5461736B0000000097
:102A10006770696F5F5461736B0000007365726962
:102A20006169735F5461736B0000000064656661E7
:102A3000756C745461736B00582A00080000002004
:102A40008800000028010008E02A00088800002013
:102A5000E016000044010008000000000000000033
:102A60000000000000000000000000000000000066
:102A70000100000010000000000000000024F4002D
:102A80000000000000000000000000000000000046
:102A90000000000000000000000000000000000036
:102AA0000000000000000000000000000000000026
:102AB0000000000000000000000000000000000016
:102AC0000000000000000000000000000000000006
:102AD0000000000000000000AAAAAAAA000000004E
:04000005080000ED02
:00000001FF
